{
  "contractName": "AwesomeToken",
  "abi": [
    {
      "constant": true,
      "inputs": [],
      "name": "mintingFinished",
      "outputs": [
        {
          "name": "",
          "type": "bool"
        }
      ],
      "payable": false,
      "stateMutability": "view",
      "type": "function"
    },
    {
      "constant": true,
      "inputs": [],
      "name": "name",
      "outputs": [
        {
          "name": "",
          "type": "string"
        }
      ],
      "payable": false,
      "stateMutability": "view",
      "type": "function"
    },
    {
      "constant": false,
      "inputs": [
        {
          "name": "_spender",
          "type": "address"
        },
        {
          "name": "_value",
          "type": "uint256"
        }
      ],
      "name": "approve",
      "outputs": [
        {
          "name": "",
          "type": "bool"
        }
      ],
      "payable": false,
      "stateMutability": "nonpayable",
      "type": "function"
    },
    {
      "constant": true,
      "inputs": [],
      "name": "totalSupply",
      "outputs": [
        {
          "name": "",
          "type": "uint256"
        }
      ],
      "payable": false,
      "stateMutability": "view",
      "type": "function"
    },
    {
      "constant": true,
      "inputs": [],
      "name": "TOKEN_NAME",
      "outputs": [
        {
          "name": "",
          "type": "string"
        }
      ],
      "payable": false,
      "stateMutability": "view",
      "type": "function"
    },
    {
      "constant": false,
      "inputs": [
        {
          "name": "_from",
          "type": "address"
        },
        {
          "name": "_to",
          "type": "address"
        },
        {
          "name": "_value",
          "type": "uint256"
        }
      ],
      "name": "transferFrom",
      "outputs": [
        {
          "name": "",
          "type": "bool"
        }
      ],
      "payable": false,
      "stateMutability": "nonpayable",
      "type": "function"
    },
    {
      "constant": true,
      "inputs": [],
      "name": "TOKEN_SYMBOL",
      "outputs": [
        {
          "name": "",
          "type": "string"
        }
      ],
      "payable": false,
      "stateMutability": "view",
      "type": "function"
    },
    {
      "constant": true,
      "inputs": [],
      "name": "decimals",
      "outputs": [
        {
          "name": "",
          "type": "uint8"
        }
      ],
      "payable": false,
      "stateMutability": "view",
      "type": "function"
    },
    {
      "constant": false,
      "inputs": [
        {
          "name": "_to",
          "type": "address"
        },
        {
          "name": "_amount",
          "type": "uint256"
        }
      ],
      "name": "mint",
      "outputs": [
        {
          "name": "",
          "type": "bool"
        }
      ],
      "payable": false,
      "stateMutability": "nonpayable",
      "type": "function"
    },
    {
      "constant": true,
      "inputs": [],
      "name": "TOKEN_DECIMALS",
      "outputs": [
        {
          "name": "",
          "type": "uint8"
        }
      ],
      "payable": false,
      "stateMutability": "view",
      "type": "function"
    },
    {
      "constant": false,
      "inputs": [
        {
          "name": "_spender",
          "type": "address"
        },
        {
          "name": "_subtractedValue",
          "type": "uint256"
        }
      ],
      "name": "decreaseApproval",
      "outputs": [
        {
          "name": "success",
          "type": "bool"
        }
      ],
      "payable": false,
      "stateMutability": "nonpayable",
      "type": "function"
    },
    {
      "constant": true,
      "inputs": [
        {
          "name": "_owner",
          "type": "address"
        }
      ],
      "name": "balanceOf",
      "outputs": [
        {
          "name": "balance",
          "type": "uint256"
        }
      ],
      "payable": false,
      "stateMutability": "view",
      "type": "function"
    },
    {
      "constant": false,
      "inputs": [],
      "name": "finishMinting",
      "outputs": [
        {
          "name": "",
          "type": "bool"
        }
      ],
      "payable": false,
      "stateMutability": "nonpayable",
      "type": "function"
    },
    {
      "constant": true,
      "inputs": [],
      "name": "DECIMALSFACTOR",
      "outputs": [
        {
          "name": "",
          "type": "uint256"
        }
      ],
      "payable": false,
      "stateMutability": "view",
      "type": "function"
    },
    {
      "constant": true,
      "inputs": [],
      "name": "owner",
      "outputs": [
        {
          "name": "",
          "type": "address"
        }
      ],
      "payable": false,
      "stateMutability": "view",
      "type": "function"
    },
    {
      "constant": true,
      "inputs": [],
      "name": "symbol",
      "outputs": [
        {
          "name": "",
          "type": "string"
        }
      ],
      "payable": false,
      "stateMutability": "view",
      "type": "function"
    },
    {
      "constant": false,
      "inputs": [
        {
          "name": "_to",
          "type": "address"
        },
        {
          "name": "_value",
          "type": "uint256"
        }
      ],
      "name": "transfer",
      "outputs": [
        {
          "name": "",
          "type": "bool"
        }
      ],
      "payable": false,
      "stateMutability": "nonpayable",
      "type": "function"
    },
    {
      "constant": false,
      "inputs": [
        {
          "name": "_spender",
          "type": "address"
        },
        {
          "name": "_addedValue",
          "type": "uint256"
        }
      ],
      "name": "increaseApproval",
      "outputs": [
        {
          "name": "success",
          "type": "bool"
        }
      ],
      "payable": false,
      "stateMutability": "nonpayable",
      "type": "function"
    },
    {
      "constant": true,
      "inputs": [
        {
          "name": "_owner",
          "type": "address"
        },
        {
          "name": "_spender",
          "type": "address"
        }
      ],
      "name": "allowance",
      "outputs": [
        {
          "name": "remaining",
          "type": "uint256"
        }
      ],
      "payable": false,
      "stateMutability": "view",
      "type": "function"
    },
    {
      "constant": false,
      "inputs": [
        {
          "name": "newOwner",
          "type": "address"
        }
      ],
      "name": "transferOwnership",
      "outputs": [],
      "payable": false,
      "stateMutability": "nonpayable",
      "type": "function"
    },
    {
      "anonymous": false,
      "inputs": [
        {
          "indexed": true,
          "name": "to",
          "type": "address"
        },
        {
          "indexed": false,
          "name": "amount",
          "type": "uint256"
        }
      ],
      "name": "Mint",
      "type": "event"
    },
    {
      "anonymous": false,
      "inputs": [],
      "name": "MintFinished",
      "type": "event"
    },
    {
      "anonymous": false,
      "inputs": [
        {
          "indexed": true,
          "name": "previousOwner",
          "type": "address"
        },
        {
          "indexed": true,
          "name": "newOwner",
          "type": "address"
        }
      ],
      "name": "OwnershipTransferred",
      "type": "event"
    },
    {
      "anonymous": false,
      "inputs": [
        {
          "indexed": true,
          "name": "owner",
          "type": "address"
        },
        {
          "indexed": true,
          "name": "spender",
          "type": "address"
        },
        {
          "indexed": false,
          "name": "value",
          "type": "uint256"
        }
      ],
      "name": "Approval",
      "type": "event"
    },
    {
      "anonymous": false,
      "inputs": [
        {
          "indexed": true,
          "name": "from",
          "type": "address"
        },
        {
          "indexed": true,
          "name": "to",
          "type": "address"
        },
        {
          "indexed": false,
          "name": "value",
          "type": "uint256"
        }
      ],
      "name": "Transfer",
      "type": "event"
    }
  ],
  "bytecode": "0x606060405260038054600160a860020a03191633600160a060020a0316179055610b4b8061002e6000396000f3006060604052600436106101115763ffffffff7c010000000000000000000000000000000000000000000000000000000060003504166305d2035b811461011657806306fdde031461013d578063095ea7b3146101c757806318160ddd146101e9578063188214001461013d57806323b872dd1461020e5780632a90531814610236578063313ce5671461024957806340c10f19146102725780635b7f415c14610249578063661884631461029457806370a08231146102b65780637d64bcb4146102d55780638bc04eb7146102e85780638da5cb5b146102fb57806395d89b4114610236578063a9059cbb1461032a578063d73dd6231461034c578063dd62ed3e1461036e578063f2fde38b14610393575b600080fd5b341561012157600080fd5b6101296103b4565b604051901515815260200160405180910390f35b341561014857600080fd5b6101506103d5565b60405160208082528190810183818151815260200191508051906020019080838360005b8381101561018c578082015183820152602001610174565b50505050905090810190601f1680156101b95780820380516001836020036101000a031916815260200191505b509250505060405180910390f35b34156101d257600080fd5b610129600160a060020a036004351660243561040c565b34156101f457600080fd5b6101fc610478565b60405190815260200160405180910390f35b341561021957600080fd5b610129600160a060020a036004358116906024351660443561047e565b341561024157600080fd5b6101506105a8565b341561025457600080fd5b61025c6105df565b60405160ff909116815260200160405180910390f35b341561027d57600080fd5b610129600160a060020a03600435166024356105e4565b341561029f57600080fd5b610129600160a060020a0360043516602435610702565b34156102c157600080fd5b6101fc600160a060020a03600435166107fc565b34156102e057600080fd5b610129610817565b34156102f357600080fd5b6101fc61089c565b341561030657600080fd5b61030e6108a8565b604051600160a060020a03909116815260200160405180910390f35b341561033557600080fd5b610129600160a060020a03600435166024356108b7565b341561035757600080fd5b610129600160a060020a036004351660243561098d565b341561037957600080fd5b6101fc600160a060020a0360043581169060243516610a31565b341561039e57600080fd5b6103b2600160a060020a0360043516610a5c565b005b60035474010000000000000000000000000000000000000000900460ff1681565b60408051908101604052600d81527f417765736f6d6520546f6b656e00000000000000000000000000000000000000602082015281565b600160a060020a03338116600081815260026020908152604080832094871680845294909152808220859055909291907f8c5be1e5ebec7d5bd14f71427d1e84f3dd0314c0f7b2291e5b200ac8c7c3b9259085905190815260200160405180910390a350600192915050565b60005481565b600080600160a060020a038416151561049657600080fd5b50600160a060020a038085166000818152600260209081526040808320339095168352938152838220549282526001905291909120546104dc908463ffffffff610af716565b600160a060020a038087166000908152600160205260408082209390935590861681522054610511908463ffffffff610b0916565b600160a060020a03851660009081526001602052604090205561053a818463ffffffff610af716565b600160a060020a03808716600081815260026020908152604080832033861684529091529081902093909355908616917fddf252ad1be2c89b69c2b068fc378daa952ba7f163c4a11628f55a4df523b3ef9086905190815260200160405180910390a3506001949350505050565b60408051908101604052600381527f4157450000000000000000000000000000000000000000000000000000000000602082015281565b601281565b60035460009033600160a060020a0390811691161461060257600080fd5b60035474010000000000000000000000000000000000000000900460ff161561062a57600080fd5b60005461063d908363ffffffff610b0916565b6000908155600160a060020a038416815260016020526040902054610668908363ffffffff610b0916565b600160a060020a0384166000818152600160205260409081902092909255907f0f6798a560793a54c3bcfe86a93cde1e73087d944c0ea20544137d41213968859084905190815260200160405180910390a282600160a060020a031660007fddf252ad1be2c89b69c2b068fc378daa952ba7f163c4a11628f55a4df523b3ef8460405190815260200160405180910390a350600192915050565b600160a060020a0333811660009081526002602090815260408083209386168352929052908120548083111561075f57600160a060020a033381166000908152600260209081526040808320938816835292905290812055610796565b61076f818463ffffffff610af716565b600160a060020a033381166000908152600260209081526040808320938916835292905220555b600160a060020a0333811660008181526002602090815260408083209489168084529490915290819020547f8c5be1e5ebec7d5bd14f71427d1e84f3dd0314c0f7b2291e5b200ac8c7c3b925915190815260200160405180910390a35060019392505050565b600160a060020a031660009081526001602052604090205490565b60035460009033600160a060020a0390811691161461083557600080fd5b6003805474ff00000000000000000000000000000000000000001916740100000000000000000000000000000000000000001790557fae5184fba832cb2b1f702aca6117b8d265eaf03ad33eb133f19dde0f5920fa0860405160405180910390a150600190565b670de0b6b3a764000081565b600354600160a060020a031681565b6000600160a060020a03831615156108ce57600080fd5b600160a060020a0333166000908152600160205260409020546108f7908363ffffffff610af716565b600160a060020a03338116600090815260016020526040808220939093559085168152205461092c908363ffffffff610b0916565b600160a060020a0380851660008181526001602052604090819020939093559133909116907fddf252ad1be2c89b69c2b068fc378daa952ba7f163c4a11628f55a4df523b3ef9085905190815260200160405180910390a350600192915050565b600160a060020a0333811660009081526002602090815260408083209386168352929052908120546109c5908363ffffffff610b0916565b600160a060020a0333811660008181526002602090815260408083209489168084529490915290819020849055919290917f8c5be1e5ebec7d5bd14f71427d1e84f3dd0314c0f7b2291e5b200ac8c7c3b92591905190815260200160405180910390a350600192915050565b600160a060020a03918216600090815260026020908152604080832093909416825291909152205490565b60035433600160a060020a03908116911614610a7757600080fd5b600160a060020a0381161515610a8c57600080fd5b600354600160a060020a0380831691167f8be0079c531659141344cd1fd0a4f28419497f9722a3daafe3b4186f6b6457e060405160405180910390a36003805473ffffffffffffffffffffffffffffffffffffffff1916600160a060020a0392909216919091179055565b600082821115610b0357fe5b50900390565b600082820183811015610b1857fe5b93925050505600a165627a7a723058200718ae96f498ca239f2b32bf5f3736b923810ca3daacecc63dc0f7b67119dd4e0029",
  "source": "pragma solidity ^0.4.18;\nimport \"zeppelin-solidity/contracts/token/MintableToken.sol\";\nimport \"./config/TokenConfig.sol\";\n\n/**\n * @title AwesomeToken\n * @dev Very simple ERC20 Token example, where all tokens are pre-assigned to the creator.\n * Note they can later distribute these tokens as they wish using `transfer` and other\n * `StandardToken` functions.\n */\ncontract AwesomeToken is MintableToken, TokenConfig {\n\n  string public constant name = TOKEN_NAME;\n  string public constant symbol = TOKEN_SYMBOL;\n  uint8 public constant decimals = TOKEN_DECIMALS;\n}\n",
  "sourcePath": "/Users/pabloruiz55/Documents/dapps/Crowdsale/contracts/AwesomeToken.sol",
  "compiler": {
    "name": "solc",
    "version": "0.4.18+commit.9cf6e910.Emscripten.clang"
  },
  "schemaVersion": "1.0.1",
  "updatedAt": "2017-11-15T00:39:22.164Z"
}