{
  "contractName": "AwesomeCrowdsale",
  "abi": [
    {
      "constant": true,
      "inputs": [],
      "name": "tokensMintedForSale",
      "outputs": [
        {
          "name": "",
          "type": "uint256"
        }
      ],
      "payable": false,
      "stateMutability": "view",
      "type": "function"
    },
    {
      "constant": true,
      "inputs": [],
      "name": "TOKEN_NAME",
      "outputs": [
        {
          "name": "",
          "type": "string"
        }
      ],
      "payable": false,
      "stateMutability": "view",
      "type": "function"
    },
    {
      "constant": true,
      "inputs": [],
      "name": "TIER1_RATE",
      "outputs": [
        {
          "name": "",
          "type": "uint256"
        }
      ],
      "payable": false,
      "stateMutability": "view",
      "type": "function"
    },
    {
      "constant": true,
      "inputs": [],
      "name": "CONTRIBUTION_MAX",
      "outputs": [
        {
          "name": "",
          "type": "uint256"
        }
      ],
      "payable": false,
      "stateMutability": "view",
      "type": "function"
    },
    {
      "constant": true,
      "inputs": [],
      "name": "TOKEN_SYMBOL",
      "outputs": [
        {
          "name": "",
          "type": "string"
        }
      ],
      "payable": false,
      "stateMutability": "view",
      "type": "function"
    },
    {
      "constant": true,
      "inputs": [],
      "name": "TIER3_RATE",
      "outputs": [
        {
          "name": "",
          "type": "uint256"
        }
      ],
      "payable": false,
      "stateMutability": "view",
      "type": "function"
    },
    {
      "constant": true,
      "inputs": [],
      "name": "endTime",
      "outputs": [
        {
          "name": "",
          "type": "uint256"
        }
      ],
      "payable": false,
      "stateMutability": "view",
      "type": "function"
    },
    {
      "constant": true,
      "inputs": [],
      "name": "TOKENS_SALE",
      "outputs": [
        {
          "name": "",
          "type": "uint256"
        }
      ],
      "payable": false,
      "stateMutability": "view",
      "type": "function"
    },
    {
      "constant": false,
      "inputs": [],
      "name": "unpause",
      "outputs": [],
      "payable": false,
      "stateMutability": "nonpayable",
      "type": "function"
    },
    {
      "constant": true,
      "inputs": [],
      "name": "weiRaised",
      "outputs": [
        {
          "name": "",
          "type": "uint256"
        }
      ],
      "payable": false,
      "stateMutability": "view",
      "type": "function"
    },
    {
      "constant": true,
      "inputs": [],
      "name": "TOKENS_EARLY_INVESTORS",
      "outputs": [
        {
          "name": "",
          "type": "uint256"
        }
      ],
      "payable": false,
      "stateMutability": "view",
      "type": "function"
    },
    {
      "constant": true,
      "inputs": [],
      "name": "hasStarted",
      "outputs": [
        {
          "name": "",
          "type": "bool"
        }
      ],
      "payable": false,
      "stateMutability": "view",
      "type": "function"
    },
    {
      "constant": true,
      "inputs": [],
      "name": "tier2Time",
      "outputs": [
        {
          "name": "",
          "type": "uint256"
        }
      ],
      "payable": false,
      "stateMutability": "view",
      "type": "function"
    },
    {
      "constant": true,
      "inputs": [],
      "name": "wallet",
      "outputs": [
        {
          "name": "",
          "type": "address"
        }
      ],
      "payable": false,
      "stateMutability": "view",
      "type": "function"
    },
    {
      "constant": true,
      "inputs": [],
      "name": "TOKEN_DECIMALS",
      "outputs": [
        {
          "name": "",
          "type": "uint8"
        }
      ],
      "payable": false,
      "stateMutability": "view",
      "type": "function"
    },
    {
      "constant": true,
      "inputs": [],
      "name": "paused",
      "outputs": [
        {
          "name": "",
          "type": "bool"
        }
      ],
      "payable": false,
      "stateMutability": "view",
      "type": "function"
    },
    {
      "constant": true,
      "inputs": [],
      "name": "calculateTierBonus",
      "outputs": [
        {
          "name": "",
          "type": "uint256"
        }
      ],
      "payable": false,
      "stateMutability": "view",
      "type": "function"
    },
    {
      "constant": true,
      "inputs": [],
      "name": "startTime",
      "outputs": [
        {
          "name": "",
          "type": "uint256"
        }
      ],
      "payable": false,
      "stateMutability": "view",
      "type": "function"
    },
    {
      "constant": true,
      "inputs": [],
      "name": "tellTime",
      "outputs": [
        {
          "name": "",
          "type": "uint256"
        }
      ],
      "payable": false,
      "stateMutability": "view",
      "type": "function"
    },
    {
      "constant": false,
      "inputs": [],
      "name": "pause",
      "outputs": [],
      "payable": false,
      "stateMutability": "nonpayable",
      "type": "function"
    },
    {
      "constant": true,
      "inputs": [],
      "name": "DECIMALSFACTOR",
      "outputs": [
        {
          "name": "",
          "type": "uint256"
        }
      ],
      "payable": false,
      "stateMutability": "view",
      "type": "function"
    },
    {
      "constant": true,
      "inputs": [],
      "name": "isFinalized",
      "outputs": [
        {
          "name": "",
          "type": "bool"
        }
      ],
      "payable": false,
      "stateMutability": "view",
      "type": "function"
    },
    {
      "constant": true,
      "inputs": [],
      "name": "owner",
      "outputs": [
        {
          "name": "",
          "type": "address"
        }
      ],
      "payable": false,
      "stateMutability": "view",
      "type": "function"
    },
    {
      "constant": true,
      "inputs": [],
      "name": "TOKENS_ADVISORS",
      "outputs": [
        {
          "name": "",
          "type": "uint256"
        }
      ],
      "payable": false,
      "stateMutability": "view",
      "type": "function"
    },
    {
      "constant": true,
      "inputs": [],
      "name": "tier3Time",
      "outputs": [
        {
          "name": "",
          "type": "uint256"
        }
      ],
      "payable": false,
      "stateMutability": "view",
      "type": "function"
    },
    {
      "constant": true,
      "inputs": [],
      "name": "CONTRIBUTION_MIN",
      "outputs": [
        {
          "name": "",
          "type": "uint256"
        }
      ],
      "payable": false,
      "stateMutability": "view",
      "type": "function"
    },
    {
      "constant": false,
      "inputs": [
        {
          "name": "beneficiary",
          "type": "address"
        }
      ],
      "name": "buyTokens",
      "outputs": [],
      "payable": true,
      "stateMutability": "payable",
      "type": "function"
    },
    {
      "constant": true,
      "inputs": [],
      "name": "hasEnded",
      "outputs": [
        {
          "name": "",
          "type": "bool"
        }
      ],
      "payable": false,
      "stateMutability": "view",
      "type": "function"
    },
    {
      "constant": true,
      "inputs": [],
      "name": "TIER2_RATE",
      "outputs": [
        {
          "name": "",
          "type": "uint256"
        }
      ],
      "payable": false,
      "stateMutability": "view",
      "type": "function"
    },
    {
      "constant": false,
      "inputs": [
        {
          "name": "newOwner",
          "type": "address"
        }
      ],
      "name": "transferOwnership",
      "outputs": [],
      "payable": false,
      "stateMutability": "nonpayable",
      "type": "function"
    },
    {
      "constant": true,
      "inputs": [],
      "name": "TOKENS_FOUNDERS",
      "outputs": [
        {
          "name": "",
          "type": "uint256"
        }
      ],
      "payable": false,
      "stateMutability": "view",
      "type": "function"
    },
    {
      "constant": true,
      "inputs": [],
      "name": "token",
      "outputs": [
        {
          "name": "",
          "type": "address"
        }
      ],
      "payable": false,
      "stateMutability": "view",
      "type": "function"
    },
    {
      "inputs": [
        {
          "name": "_startTime",
          "type": "uint256"
        },
        {
          "name": "_tier2Time",
          "type": "uint256"
        },
        {
          "name": "_tier3Time",
          "type": "uint256"
        },
        {
          "name": "_endTime",
          "type": "uint256"
        },
        {
          "name": "_wallet",
          "type": "address"
        }
      ],
      "payable": false,
      "stateMutability": "nonpayable",
      "type": "constructor"
    },
    {
      "payable": true,
      "stateMutability": "payable",
      "type": "fallback"
    },
    {
      "anonymous": false,
      "inputs": [],
      "name": "Finalized",
      "type": "event"
    },
    {
      "anonymous": false,
      "inputs": [
        {
          "indexed": true,
          "name": "purchaser",
          "type": "address"
        },
        {
          "indexed": true,
          "name": "beneficiary",
          "type": "address"
        },
        {
          "indexed": false,
          "name": "value",
          "type": "uint256"
        },
        {
          "indexed": false,
          "name": "amount",
          "type": "uint256"
        }
      ],
      "name": "TokenPurchase",
      "type": "event"
    },
    {
      "anonymous": false,
      "inputs": [],
      "name": "Pause",
      "type": "event"
    },
    {
      "anonymous": false,
      "inputs": [],
      "name": "Unpause",
      "type": "event"
    },
    {
      "anonymous": false,
      "inputs": [
        {
          "indexed": true,
          "name": "previousOwner",
          "type": "address"
        },
        {
          "indexed": true,
          "name": "newOwner",
          "type": "address"
        }
      ],
      "name": "OwnershipTransferred",
      "type": "event"
    }
  ],
  "bytecode": "0x60606040526000805460a060020a60ff02191690556009805460ff19169055341561002957600080fd5b60405160a0806123d0833981016040528080519190602001805191906020018051919060200180519190602001805160008054600160a060020a03191633600160a060020a03161790559150504285101561008357600080fd5b8482101561009057600080fd5b600160a060020a03811615156100a557600080fd5b6100ba640100000000610b3a6100ff82021704565b60018054600160a060020a0319908116600160a060020a0393841617909155600296909655600394909455600492909255600555600680549093169116179055610134565b6000610109610124565b604051809103906000f080151561011f57600080fd5b905090565b604051610b798061185783390190565b611714806101436000396000f3006060604052600436106101955763ffffffff7c01000000000000000000000000000000000000000000000000000000006000350416630fb4b07081146101db578063188214001461020057806319ac27561461028a5780631a2309f01461029d5780632a905318146102b05780632cb3ce8c146102c35780633197cbb6146102d65780633280922b146102e95780633f4ba83a146102fc5780634042b66f1461030f57806342702ac91461032257806344691f7e146103355780634ca6d7e61461035c578063521eb2731461036f5780635b7f415c1461039e5780635c975abb146103c75780636595c94e146103da57806378e97925146103ed57806379a37bd0146104005780638456cb59146104135780638bc04eb7146104265780638d4e4083146104395780638da5cb5b1461044c5780639978be951461045f578063b5a9823f14610472578063ba9bb82714610485578063ec8ac4d814610498578063ecb70fb7146104ac578063f0a15f10146104bf578063f2fde38b146104d2578063f653279c14610322578063fc0c546a146104f1575b60005460a060020a900460ff16156101ac57600080fd5b6101b4610504565b80156101c557506101c361050e565b155b15156101d057600080fd5b6101d93361052a565b005b34156101e657600080fd5b6101ee610710565b60405190815260200160405180910390f35b341561020b57600080fd5b610213610716565b60405160208082528190810183818151815260200191508051906020019080838360005b8381101561024f578082015183820152602001610237565b50505050905090810190601f16801561027c5780820380516001836020036101000a031916815260200191505b509250505060405180910390f35b341561029557600080fd5b6101ee61074d565b34156102a857600080fd5b6101ee610754565b34156102bb57600080fd5b610213610761565b34156102ce57600080fd5b6101ee610798565b34156102e157600080fd5b6101ee61079e565b34156102f457600080fd5b6101ee6107a4565b341561030757600080fd5b6101d96107b2565b341561031a57600080fd5b6101ee610831565b341561032d57600080fd5b6101ee610837565b341561034057600080fd5b610348610504565b604051901515815260200160405180910390f35b341561036757600080fd5b6101ee610845565b341561037a57600080fd5b61038261084b565b604051600160a060020a03909116815260200160405180910390f35b34156103a957600080fd5b6103b161085a565b60405160ff909116815260200160405180910390f35b34156103d257600080fd5b61034861085f565b34156103e557600080fd5b6101ee61086f565b34156103f857600080fd5b6101ee6108f5565b341561040b57600080fd5b6101ee6108fb565b341561041e57600080fd5b6101d96108ff565b341561043157600080fd5b6101ee610983565b341561044457600080fd5b61034861098f565b341561045757600080fd5b610382610998565b341561046a57600080fd5b6101ee6109a7565b341561047d57600080fd5b6101ee6109b5565b341561049057600080fd5b6101ee6109bb565b6101d9600160a060020a036004351661052a565b34156104b757600080fd5b61034861050e565b34156104ca57600080fd5b6101ee6109c7565b34156104dd57600080fd5b6101d9600160a060020a03600435166109ce565b34156104fc57600080fd5b610382610a69565b6002544210155b90565b60055460009042118080610524575060095460ff165b91505090565b600080548190819060a060020a900460ff161561054657600080fd5b61054e610504565b801561055f575061055d61050e565b155b151561056a57600080fd5b600160a060020a038416151561057f57600080fd5b6000341161058c57600080fd5b34925061059761086f565b91506105a9838363ffffffff610a7816565b6008549091506969e10de76676d0800000906105cb908363ffffffff610aa316565b11156105d657600080fd5b6007546105e9908463ffffffff610aa316565b6007556008546105ff908263ffffffff610aa316565b600855600154600160a060020a03166340c10f1985836000604051602001526040517c010000000000000000000000000000000000000000000000000000000063ffffffff8516028152600160a060020a0390921660048301526024820152604401602060405180830381600087803b151561067a57600080fd5b6102c65a03f1151561068b57600080fd5b505050604051805190505083600160a060020a031633600160a060020a03167f623b3804fa71d67900d064613da8f94b9617215ee90799290593e1745087ad18858460405191825260208201526040908101905180910390a36008546969e10de76676d0800000141561070257610700610ab2565b505b61070a610b04565b50505050565b60085481565b60408051908101604052600d81527f417765736f6d6520546f6b656e00000000000000000000000000000000000000602082015281565b620186a081565b68056bc75e2d6310000081565b60408051908101604052600381527f4157450000000000000000000000000000000000000000000000000000000000602082015281565b61c35081565b60055481565b6969e10de76676d080000081565b60005433600160a060020a039081169116146107cd57600080fd5b60005460a060020a900460ff1615156107e557600080fd5b6000805474ff0000000000000000000000000000000000000000191690557f7805862f689e2f13df9f062ff482ad3ad112aca9e0847911ed832e158c525b3360405160405180910390a1565b60075481565b692a5a058fc295ed00000081565b60035481565b600654600160a060020a031681565b601281565b60005460a060020a900460ff1681565b60006002544210158015610884575060035442105b156108935750620186a061050b565b60035442101580156108a6575060045442105b156108b557506201117061050b565b60045442101580156108c957506005544211155b156108d7575061c35061050b565b6002544210806108e8575060055442115b1561050b5750600061050b565b60025481565b4290565b60005433600160a060020a0390811691161461091a57600080fd5b60005460a060020a900460ff161561093157600080fd5b6000805474ff0000000000000000000000000000000000000000191660a060020a1790557f6985a02210a168e66602d3235cb6db0e70f92b3ba4d376a33c0f3d9434bff62560405160405180910390a1565b670de0b6b3a764000081565b60095460ff1681565b600054600160a060020a031681565b690a968163f0a57b40000081565b60045481565b67016345785d8a000081565b6201117081565b60005433600160a060020a039081169116146109e957600080fd5b600160a060020a03811615156109fe57600080fd5b600054600160a060020a0380831691167f8be0079c531659141344cd1fd0a4f28419497f9722a3daafe3b4186f6b6457e060405160405180910390a36000805473ffffffffffffffffffffffffffffffffffffffff1916600160a060020a0392909216919091179055565b600154600160a060020a031681565b6000828202831580610a945750828482811515610a9157fe5b04145b1515610a9c57fe5b9392505050565b600082820183811015610a9c57fe5b60095460009060ff1615610ac557600080fd5b6009805460ff191660011790557f6823b073d48d6e3a7d385eeb601452d680e74bb46afe3255a7d778f3a9b1768160405160405180910390a150600190565b600654600160a060020a03163480156108fc0290604051600060405180830381858888f193505050501515610b3857600080fd5b565b6000610b44610b5f565b604051809103906000f0801515610b5a57600080fd5b905090565b604051610b7980610b70833901905600606060405260038054600160a860020a03191633600160a060020a0316179055610b4b8061002e6000396000f3006060604052600436106101115763ffffffff7c010000000000000000000000000000000000000000000000000000000060003504166305d2035b811461011657806306fdde031461013d578063095ea7b3146101c757806318160ddd146101e9578063188214001461013d57806323b872dd1461020e5780632a90531814610236578063313ce5671461024957806340c10f19146102725780635b7f415c14610249578063661884631461029457806370a08231146102b65780637d64bcb4146102d55780638bc04eb7146102e85780638da5cb5b146102fb57806395d89b4114610236578063a9059cbb1461032a578063d73dd6231461034c578063dd62ed3e1461036e578063f2fde38b14610393575b600080fd5b341561012157600080fd5b6101296103b4565b604051901515815260200160405180910390f35b341561014857600080fd5b6101506103d5565b60405160208082528190810183818151815260200191508051906020019080838360005b8381101561018c578082015183820152602001610174565b50505050905090810190601f1680156101b95780820380516001836020036101000a031916815260200191505b509250505060405180910390f35b34156101d257600080fd5b610129600160a060020a036004351660243561040c565b34156101f457600080fd5b6101fc610478565b60405190815260200160405180910390f35b341561021957600080fd5b610129600160a060020a036004358116906024351660443561047e565b341561024157600080fd5b6101506105a8565b341561025457600080fd5b61025c6105df565b60405160ff909116815260200160405180910390f35b341561027d57600080fd5b610129600160a060020a03600435166024356105e4565b341561029f57600080fd5b610129600160a060020a0360043516602435610702565b34156102c157600080fd5b6101fc600160a060020a03600435166107fc565b34156102e057600080fd5b610129610817565b34156102f357600080fd5b6101fc61089c565b341561030657600080fd5b61030e6108a8565b604051600160a060020a03909116815260200160405180910390f35b341561033557600080fd5b610129600160a060020a03600435166024356108b7565b341561035757600080fd5b610129600160a060020a036004351660243561098d565b341561037957600080fd5b6101fc600160a060020a0360043581169060243516610a31565b341561039e57600080fd5b6103b2600160a060020a0360043516610a5c565b005b60035474010000000000000000000000000000000000000000900460ff1681565b60408051908101604052600d81527f417765736f6d6520546f6b656e00000000000000000000000000000000000000602082015281565b600160a060020a03338116600081815260026020908152604080832094871680845294909152808220859055909291907f8c5be1e5ebec7d5bd14f71427d1e84f3dd0314c0f7b2291e5b200ac8c7c3b9259085905190815260200160405180910390a350600192915050565b60005481565b600080600160a060020a038416151561049657600080fd5b50600160a060020a038085166000818152600260209081526040808320339095168352938152838220549282526001905291909120546104dc908463ffffffff610af716565b600160a060020a038087166000908152600160205260408082209390935590861681522054610511908463ffffffff610b0916565b600160a060020a03851660009081526001602052604090205561053a818463ffffffff610af716565b600160a060020a03808716600081815260026020908152604080832033861684529091529081902093909355908616917fddf252ad1be2c89b69c2b068fc378daa952ba7f163c4a11628f55a4df523b3ef9086905190815260200160405180910390a3506001949350505050565b60408051908101604052600381527f4157450000000000000000000000000000000000000000000000000000000000602082015281565b601281565b60035460009033600160a060020a0390811691161461060257600080fd5b60035474010000000000000000000000000000000000000000900460ff161561062a57600080fd5b60005461063d908363ffffffff610b0916565b6000908155600160a060020a038416815260016020526040902054610668908363ffffffff610b0916565b600160a060020a0384166000818152600160205260409081902092909255907f0f6798a560793a54c3bcfe86a93cde1e73087d944c0ea20544137d41213968859084905190815260200160405180910390a282600160a060020a031660007fddf252ad1be2c89b69c2b068fc378daa952ba7f163c4a11628f55a4df523b3ef8460405190815260200160405180910390a350600192915050565b600160a060020a0333811660009081526002602090815260408083209386168352929052908120548083111561075f57600160a060020a033381166000908152600260209081526040808320938816835292905290812055610796565b61076f818463ffffffff610af716565b600160a060020a033381166000908152600260209081526040808320938916835292905220555b600160a060020a0333811660008181526002602090815260408083209489168084529490915290819020547f8c5be1e5ebec7d5bd14f71427d1e84f3dd0314c0f7b2291e5b200ac8c7c3b925915190815260200160405180910390a35060019392505050565b600160a060020a031660009081526001602052604090205490565b60035460009033600160a060020a0390811691161461083557600080fd5b6003805474ff00000000000000000000000000000000000000001916740100000000000000000000000000000000000000001790557fae5184fba832cb2b1f702aca6117b8d265eaf03ad33eb133f19dde0f5920fa0860405160405180910390a150600190565b670de0b6b3a764000081565b600354600160a060020a031681565b6000600160a060020a03831615156108ce57600080fd5b600160a060020a0333166000908152600160205260409020546108f7908363ffffffff610af716565b600160a060020a03338116600090815260016020526040808220939093559085168152205461092c908363ffffffff610b0916565b600160a060020a0380851660008181526001602052604090819020939093559133909116907fddf252ad1be2c89b69c2b068fc378daa952ba7f163c4a11628f55a4df523b3ef9085905190815260200160405180910390a350600192915050565b600160a060020a0333811660009081526002602090815260408083209386168352929052908120546109c5908363ffffffff610b0916565b600160a060020a0333811660008181526002602090815260408083209489168084529490915290819020849055919290917f8c5be1e5ebec7d5bd14f71427d1e84f3dd0314c0f7b2291e5b200ac8c7c3b92591905190815260200160405180910390a350600192915050565b600160a060020a03918216600090815260026020908152604080832093909416825291909152205490565b60035433600160a060020a03908116911614610a7757600080fd5b600160a060020a0381161515610a8c57600080fd5b600354600160a060020a0380831691167f8be0079c531659141344cd1fd0a4f28419497f9722a3daafe3b4186f6b6457e060405160405180910390a36003805473ffffffffffffffffffffffffffffffffffffffff1916600160a060020a0392909216919091179055565b600082821115610b0357fe5b50900390565b600082820183811015610b1857fe5b93925050505600a165627a7a723058200718ae96f498ca239f2b32bf5f3736b923810ca3daacecc63dc0f7b67119dd4e0029a165627a7a723058206d32453100ca3f2597184d5e36929635912209b0f8ad2af0f83e268cb0e437540029606060405260038054600160a860020a03191633600160a060020a0316179055610b4b8061002e6000396000f3006060604052600436106101115763ffffffff7c010000000000000000000000000000000000000000000000000000000060003504166305d2035b811461011657806306fdde031461013d578063095ea7b3146101c757806318160ddd146101e9578063188214001461013d57806323b872dd1461020e5780632a90531814610236578063313ce5671461024957806340c10f19146102725780635b7f415c14610249578063661884631461029457806370a08231146102b65780637d64bcb4146102d55780638bc04eb7146102e85780638da5cb5b146102fb57806395d89b4114610236578063a9059cbb1461032a578063d73dd6231461034c578063dd62ed3e1461036e578063f2fde38b14610393575b600080fd5b341561012157600080fd5b6101296103b4565b604051901515815260200160405180910390f35b341561014857600080fd5b6101506103d5565b60405160208082528190810183818151815260200191508051906020019080838360005b8381101561018c578082015183820152602001610174565b50505050905090810190601f1680156101b95780820380516001836020036101000a031916815260200191505b509250505060405180910390f35b34156101d257600080fd5b610129600160a060020a036004351660243561040c565b34156101f457600080fd5b6101fc610478565b60405190815260200160405180910390f35b341561021957600080fd5b610129600160a060020a036004358116906024351660443561047e565b341561024157600080fd5b6101506105a8565b341561025457600080fd5b61025c6105df565b60405160ff909116815260200160405180910390f35b341561027d57600080fd5b610129600160a060020a03600435166024356105e4565b341561029f57600080fd5b610129600160a060020a0360043516602435610702565b34156102c157600080fd5b6101fc600160a060020a03600435166107fc565b34156102e057600080fd5b610129610817565b34156102f357600080fd5b6101fc61089c565b341561030657600080fd5b61030e6108a8565b604051600160a060020a03909116815260200160405180910390f35b341561033557600080fd5b610129600160a060020a03600435166024356108b7565b341561035757600080fd5b610129600160a060020a036004351660243561098d565b341561037957600080fd5b6101fc600160a060020a0360043581169060243516610a31565b341561039e57600080fd5b6103b2600160a060020a0360043516610a5c565b005b60035474010000000000000000000000000000000000000000900460ff1681565b60408051908101604052600d81527f417765736f6d6520546f6b656e00000000000000000000000000000000000000602082015281565b600160a060020a03338116600081815260026020908152604080832094871680845294909152808220859055909291907f8c5be1e5ebec7d5bd14f71427d1e84f3dd0314c0f7b2291e5b200ac8c7c3b9259085905190815260200160405180910390a350600192915050565b60005481565b600080600160a060020a038416151561049657600080fd5b50600160a060020a038085166000818152600260209081526040808320339095168352938152838220549282526001905291909120546104dc908463ffffffff610af716565b600160a060020a038087166000908152600160205260408082209390935590861681522054610511908463ffffffff610b0916565b600160a060020a03851660009081526001602052604090205561053a818463ffffffff610af716565b600160a060020a03808716600081815260026020908152604080832033861684529091529081902093909355908616917fddf252ad1be2c89b69c2b068fc378daa952ba7f163c4a11628f55a4df523b3ef9086905190815260200160405180910390a3506001949350505050565b60408051908101604052600381527f4157450000000000000000000000000000000000000000000000000000000000602082015281565b601281565b60035460009033600160a060020a0390811691161461060257600080fd5b60035474010000000000000000000000000000000000000000900460ff161561062a57600080fd5b60005461063d908363ffffffff610b0916565b6000908155600160a060020a038416815260016020526040902054610668908363ffffffff610b0916565b600160a060020a0384166000818152600160205260409081902092909255907f0f6798a560793a54c3bcfe86a93cde1e73087d944c0ea20544137d41213968859084905190815260200160405180910390a282600160a060020a031660007fddf252ad1be2c89b69c2b068fc378daa952ba7f163c4a11628f55a4df523b3ef8460405190815260200160405180910390a350600192915050565b600160a060020a0333811660009081526002602090815260408083209386168352929052908120548083111561075f57600160a060020a033381166000908152600260209081526040808320938816835292905290812055610796565b61076f818463ffffffff610af716565b600160a060020a033381166000908152600260209081526040808320938916835292905220555b600160a060020a0333811660008181526002602090815260408083209489168084529490915290819020547f8c5be1e5ebec7d5bd14f71427d1e84f3dd0314c0f7b2291e5b200ac8c7c3b925915190815260200160405180910390a35060019392505050565b600160a060020a031660009081526001602052604090205490565b60035460009033600160a060020a0390811691161461083557600080fd5b6003805474ff00000000000000000000000000000000000000001916740100000000000000000000000000000000000000001790557fae5184fba832cb2b1f702aca6117b8d265eaf03ad33eb133f19dde0f5920fa0860405160405180910390a150600190565b670de0b6b3a764000081565b600354600160a060020a031681565b6000600160a060020a03831615156108ce57600080fd5b600160a060020a0333166000908152600160205260409020546108f7908363ffffffff610af716565b600160a060020a03338116600090815260016020526040808220939093559085168152205461092c908363ffffffff610b0916565b600160a060020a0380851660008181526001602052604090819020939093559133909116907fddf252ad1be2c89b69c2b068fc378daa952ba7f163c4a11628f55a4df523b3ef9085905190815260200160405180910390a350600192915050565b600160a060020a0333811660009081526002602090815260408083209386168352929052908120546109c5908363ffffffff610b0916565b600160a060020a0333811660008181526002602090815260408083209489168084529490915290819020849055919290917f8c5be1e5ebec7d5bd14f71427d1e84f3dd0314c0f7b2291e5b200ac8c7c3b92591905190815260200160405180910390a350600192915050565b600160a060020a03918216600090815260026020908152604080832093909416825291909152205490565b60035433600160a060020a03908116911614610a7757600080fd5b600160a060020a0381161515610a8c57600080fd5b600354600160a060020a0380831691167f8be0079c531659141344cd1fd0a4f28419497f9722a3daafe3b4186f6b6457e060405160405180910390a36003805473ffffffffffffffffffffffffffffffffffffffff1916600160a060020a0392909216919091179055565b600082821115610b0357fe5b50900390565b600082820183811015610b1857fe5b93925050505600a165627a7a723058200718ae96f498ca239f2b32bf5f3736b923810ca3daacecc63dc0f7b67119dd4e0029",
  "source": "pragma solidity ^0.4.18;\n\nimport './AwesomeToken.sol';\nimport 'zeppelin-solidity/contracts/math/SafeMath.sol';\nimport 'zeppelin-solidity/contracts/lifecycle/Pausable.sol';\nimport './config/TokenSaleConfig.sol';\n\n/**\n * @title Crowdsale\n * @dev Crowdsale is a base contract for managing a token crowdsale.\n * Crowdsales have a start and end timestamps, where investors can make\n * token purchases and the crowdsale will assign them tokens based\n * on a token per ETH rate. Funds collected are forwarded to a wallet\n * as they arrive.\n */\ncontract AwesomeCrowdsale is Pausable, TokenSaleConfig {\n  using SafeMath for uint256;\n\n  // The token being sold\n  AwesomeToken public token;\n\n  // start and end timestamps where investments are allowed (both inclusive)\n  uint256 public startTime;\n  uint256 public tier2Time;\n  uint256 public tier3Time;\n  uint256 public endTime;\n\n  // address where funds are collected\n  address public wallet;\n\n  // amount of raised money in wei\n  uint256 public weiRaised;\n\n  //Tokens minted/sold in the crowdsale\n  uint256 public tokensMintedForSale;\n\n  //keeps track of whether or not the crowdsale has ended.\n  //Will be set to true either when the time is up or when the hard cap is reached\n  bool public isFinalized = false;\n\n  ////////////\n  // EVENTS //\n  ////////////\n\n  event Finalized();\n\n  ///////////////\n  // MODIFIERS //\n  ///////////////\n\n  modifier onlyDuringSale() {\n        require(hasStarted() && !hasEnded());\n        _;\n    }\n\n  modifier onlyAfterSale() {\n      // require finalized is stronger than hasSaleEnded\n      require(hasEnded());\n      _;\n  }\n\n  /////////////////////////////////////////\n\n  /**\n   * event for token purchase logging\n   * @param purchaser who paid for the tokens\n   * @param beneficiary who got the tokens\n   * @param value weis paid for purchase\n   * @param amount amount of tokens purchased\n   */\n  event TokenPurchase(address indexed purchaser, address indexed beneficiary, uint256 value, uint256 amount);\n\n\n  function AwesomeCrowdsale(uint256 _startTime, uint256 _tier2Time, uint256 _tier3Time, uint256 _endTime, address _wallet) {\n    require(_startTime >= now);\n    require(_endTime >= _startTime);\n    require(_wallet != address(0));\n\n    //Validate constants\n    require(TIER1_RATE > 0);\n    require(TIER2_RATE > 0);\n    require(TIER3_RATE > 0);\n\n    token = createTokenContract();\n    startTime = _startTime;\n    tier2Time = _tier2Time;\n    tier3Time = _tier3Time;\n    endTime = _endTime;\n    wallet = _wallet;\n  }\n\n  // creates the token to be sold.\n  // override this method to have crowdsale of a specific mintable token.\n  function createTokenContract() internal returns (AwesomeToken) {\n    return new AwesomeToken();\n  }\n\n\n  // fallback function can be used to buy tokens\n  function () public payable whenNotPaused onlyDuringSale {\n    buyTokens(msg.sender);\n  }\n\n  // low level token purchase function\n  function buyTokens(address beneficiary) public payable whenNotPaused onlyDuringSale {\n    require(beneficiary != address(0));\n    require(msg.value > 0); // Prevent 0 eth purchases\n\n    //contribution received in wei\n    uint256 weiAmount = msg.value;\n\n    // calculate token amount to be created\n    uint256 exchangeRate = calculateTierBonus();\n    uint256 tokens = weiAmount.mul(exchangeRate);\n\n    // Make sure we don't sell more tokens than those available to the crowdsale\n    // TBD change this so we can sell the difference.\n    require (tokensMintedForSale.add(tokens) <= TOKENS_SALE);\n\n    // update state\n    weiRaised = weiRaised.add(weiAmount);  //Keep track of wei raised\n    tokensMintedForSale = tokensMintedForSale.add(tokens); //Keep track of tokens sold\n\n    token.mint(beneficiary, tokens);\n\n    TokenPurchase(msg.sender, beneficiary, weiAmount, tokens);\n\n    // If all tokens available for sale have been sold, finalize the sale automatically.\n    if (tokensMintedForSale == TOKENS_SALE) {\n        finalizeInternal();\n    }\n\n    forwardFunds();\n  }\n\n  //Calculate how many tokens correspond given the ether payed and the current tier.\n  function calculateTierBonus() public view returns (uint256){\n\n    if(now >= startTime && now < tier2Time){\n      return TIER1_RATE;\n    }\n\n    if(now >= tier2Time && now < tier3Time){\n      return TIER2_RATE;\n    }\n\n    if(now >= tier3Time && now <= endTime){\n      return TIER3_RATE;\n    }\n\n    //SHOULD NOT be possible to buy tokens in the following cases.\n    //Enforced by validPurchase() called in buyTokens().\n    if(now < startTime || now > endTime){\n      return 0;\n    }\n\n  }\n\n  // The internal one will be called if tokens are sold out or\n  // the end time for the sale is reached, in addition to being called\n  // from the public version of finalize().\n  function finalizeInternal() internal returns (bool) {\n      require(!isFinalized);\n\n      isFinalized = true;\n      Finalized();\n      return true;\n  }\n\n  // send ether to the fund collection wallet\n  // override to create custom fund forwarding mechanisms\n  function forwardFunds() internal {\n    wallet.transfer(msg.value);\n  }\n\n  //\n  //Helper functions for onlyDuringSale / onlyAfterSale modifiers\n  //\n\n  // @return true if crowdsale event has ended\n  function hasEnded() public constant returns (bool) {\n    bool _saleIsOver = now > endTime;\n    return _saleIsOver || isFinalized;\n  }\n\n  // @return true if crowdsale event has started\n  function hasStarted() public constant returns (bool) {\n    return now >= startTime;\n  }\n  \n  //\n  //Utility functions\n  //\n\n  function tellTime() public constant returns (uint) {\n    return now;\n  }\n\n\n}\n",
  "sourcePath": "/Users/pabloruiz55/Documents/dapps/Crowdsale/contracts/AwesomeCrowdsale.sol",
  "compiler": {
    "name": "solc",
    "version": "0.4.18+commit.9cf6e910.Emscripten.clang"
  },
  "schemaVersion": "1.0.1",
  "updatedAt": "2017-11-15T00:39:22.161Z"
}