{
  "contractName": "TokenConfig",
  "abi": [
    {
      "constant": true,
      "inputs": [],
      "name": "TOKEN_NAME",
      "outputs": [
        {
          "name": "",
          "type": "string"
        }
      ],
      "payable": false,
      "stateMutability": "view",
      "type": "function"
    },
    {
      "constant": true,
      "inputs": [],
      "name": "TOKEN_SYMBOL",
      "outputs": [
        {
          "name": "",
          "type": "string"
        }
      ],
      "payable": false,
      "stateMutability": "view",
      "type": "function"
    },
    {
      "constant": true,
      "inputs": [],
      "name": "TOKEN_DECIMALS",
      "outputs": [
        {
          "name": "",
          "type": "uint8"
        }
      ],
      "payable": false,
      "stateMutability": "view",
      "type": "function"
    },
    {
      "constant": true,
      "inputs": [],
      "name": "DECIMALSFACTOR",
      "outputs": [
        {
          "name": "",
          "type": "uint256"
        }
      ],
      "payable": false,
      "stateMutability": "view",
      "type": "function"
    }
  ],
  "bytecode": "0x6060604052341561000f57600080fd5b6101fc8061001e6000396000f3006060604052600436106100615763ffffffff7c01000000000000000000000000000000000000000000000000000000006000350416631882140081146100665780632a905318146100f05780635b7f415c146101035780638bc04eb71461012c575b600080fd5b341561007157600080fd5b610079610151565b60405160208082528190810183818151815260200191508051906020019080838360005b838110156100b557808201518382015260200161009d565b50505050905090810190601f1680156100e25780820380516001836020036101000a031916815260200191505b509250505060405180910390f35b34156100fb57600080fd5b610079610188565b341561010e57600080fd5b6101166101bf565b60405160ff909116815260200160405180910390f35b341561013757600080fd5b61013f6101c4565b60405190815260200160405180910390f35b60408051908101604052600d81527f417765736f6d6520546f6b656e00000000000000000000000000000000000000602082015281565b60408051908101604052600381527f4157450000000000000000000000000000000000000000000000000000000000602082015281565b601281565b670de0b6b3a7640000815600a165627a7a72305820897c4ea6b119ca2bfcb215c25101762013eada64aa1bbfc8943bc1c4f33770d10029",
  "source": "pragma solidity ^0.4.18;\n\ncontract TokenConfig {\n\n    string  public constant TOKEN_SYMBOL   = \"AWE\";\n    string  public constant TOKEN_NAME     = \"Awesome Token\";\n    uint8   public constant TOKEN_DECIMALS = 18;\n\n    uint256 public constant DECIMALSFACTOR = 10**uint256(TOKEN_DECIMALS);\n}\n",
  "sourcePath": "/Users/pabloruiz55/Documents/dapps/Crowdsale/contracts/config/TokenConfig.sol",
  "compiler": {
    "name": "solc",
    "version": "0.4.18+commit.9cf6e910.Emscripten.clang"
  },
  "schemaVersion": "1.0.1",
  "updatedAt": "2017-11-15T00:39:22.165Z"
}