{
  "contractName": "TokenSaleConfig",
  "abi": [
    {
      "constant": true,
      "inputs": [],
      "name": "TOKEN_NAME",
      "outputs": [
        {
          "name": "",
          "type": "string"
        }
      ],
      "payable": false,
      "stateMutability": "view",
      "type": "function"
    },
    {
      "constant": true,
      "inputs": [],
      "name": "TIER1_RATE",
      "outputs": [
        {
          "name": "",
          "type": "uint256"
        }
      ],
      "payable": false,
      "stateMutability": "view",
      "type": "function"
    },
    {
      "constant": true,
      "inputs": [],
      "name": "CONTRIBUTION_MAX",
      "outputs": [
        {
          "name": "",
          "type": "uint256"
        }
      ],
      "payable": false,
      "stateMutability": "view",
      "type": "function"
    },
    {
      "constant": true,
      "inputs": [],
      "name": "TOKEN_SYMBOL",
      "outputs": [
        {
          "name": "",
          "type": "string"
        }
      ],
      "payable": false,
      "stateMutability": "view",
      "type": "function"
    },
    {
      "constant": true,
      "inputs": [],
      "name": "TIER3_RATE",
      "outputs": [
        {
          "name": "",
          "type": "uint256"
        }
      ],
      "payable": false,
      "stateMutability": "view",
      "type": "function"
    },
    {
      "constant": true,
      "inputs": [],
      "name": "TOKENS_SALE",
      "outputs": [
        {
          "name": "",
          "type": "uint256"
        }
      ],
      "payable": false,
      "stateMutability": "view",
      "type": "function"
    },
    {
      "constant": true,
      "inputs": [],
      "name": "TOKENS_EARLY_INVESTORS",
      "outputs": [
        {
          "name": "",
          "type": "uint256"
        }
      ],
      "payable": false,
      "stateMutability": "view",
      "type": "function"
    },
    {
      "constant": true,
      "inputs": [],
      "name": "TOKEN_DECIMALS",
      "outputs": [
        {
          "name": "",
          "type": "uint8"
        }
      ],
      "payable": false,
      "stateMutability": "view",
      "type": "function"
    },
    {
      "constant": true,
      "inputs": [],
      "name": "DECIMALSFACTOR",
      "outputs": [
        {
          "name": "",
          "type": "uint256"
        }
      ],
      "payable": false,
      "stateMutability": "view",
      "type": "function"
    },
    {
      "constant": true,
      "inputs": [],
      "name": "TOKENS_ADVISORS",
      "outputs": [
        {
          "name": "",
          "type": "uint256"
        }
      ],
      "payable": false,
      "stateMutability": "view",
      "type": "function"
    },
    {
      "constant": true,
      "inputs": [],
      "name": "CONTRIBUTION_MIN",
      "outputs": [
        {
          "name": "",
          "type": "uint256"
        }
      ],
      "payable": false,
      "stateMutability": "view",
      "type": "function"
    },
    {
      "constant": true,
      "inputs": [],
      "name": "TIER2_RATE",
      "outputs": [
        {
          "name": "",
          "type": "uint256"
        }
      ],
      "payable": false,
      "stateMutability": "view",
      "type": "function"
    },
    {
      "constant": true,
      "inputs": [],
      "name": "TOKENS_FOUNDERS",
      "outputs": [
        {
          "name": "",
          "type": "uint256"
        }
      ],
      "payable": false,
      "stateMutability": "view",
      "type": "function"
    }
  ],
  "bytecode": "0x6060604052341561000f57600080fd5b61034e8061001e6000396000f3006060604052600436106100c45763ffffffff7c01000000000000000000000000000000000000000000000000000000006000350416631882140081146100c957806319ac2756146101535780631a2309f0146101785780632a9053181461018b5780632cb3ce8c1461019e5780633280922b146101b157806342702ac9146101c45780635b7f415c146101d75780638bc04eb7146102005780639978be9514610213578063ba9bb82714610226578063f0a15f1014610239578063f653279c146101c4575b600080fd5b34156100d457600080fd5b6100dc61024c565b60405160208082528190810183818151815260200191508051906020019080838360005b83811015610118578082015183820152602001610100565b50505050905090810190601f1680156101455780820380516001836020036101000a031916815260200191505b509250505060405180910390f35b341561015e57600080fd5b610166610283565b60405190815260200160405180910390f35b341561018357600080fd5b61016661028a565b341561019657600080fd5b6100dc610297565b34156101a957600080fd5b6101666102ce565b34156101bc57600080fd5b6101666102d4565b34156101cf57600080fd5b6101666102e2565b34156101e257600080fd5b6101ea6102f0565b60405160ff909116815260200160405180910390f35b341561020b57600080fd5b6101666102f5565b341561021e57600080fd5b610166610301565b341561023157600080fd5b61016661030f565b341561024457600080fd5b61016661031b565b60408051908101604052600d81527f417765736f6d6520546f6b656e00000000000000000000000000000000000000602082015281565b620186a081565b68056bc75e2d6310000081565b60408051908101604052600381527f4157450000000000000000000000000000000000000000000000000000000000602082015281565b61c35081565b6969e10de76676d080000081565b692a5a058fc295ed00000081565b601281565b670de0b6b3a764000081565b690a968163f0a57b40000081565b67016345785d8a000081565b62011170815600a165627a7a72305820212b20c377ca79e3a3635e22a5b8afe0e7e53f4395dca49c58f6c6646e9d967d0029",
  "source": "pragma solidity ^0.4.18;\n\nimport \"./TokenConfig.sol\";\n\ncontract TokenSaleConfig is TokenConfig {\n\n    /*uint256 public constant START_TIME                = 1510664400; // xxxx-xx-xx xx:xx:xx UTC\n    uint256 public constant PHASE2_START_TIME         = 1510750800; // xxxx-xx-xx xx:xx:xx UTC\n    uint256 public constant PHASE3_START_TIME         = 1510750800; // xxxx-xx-xx xx:xx:xx UTC\n    uint256 public constant END_TIME                  = 1511269199; // xxxx-xx-xx xx:xx:xx UTC*/\n\n    uint256 public constant TIER1_RATE                  = 100000;\n    uint256 public constant TIER2_RATE                  =  70000;\n    uint256 public constant TIER3_RATE                  =  50000;\n\n\n    uint256 public constant CONTRIBUTION_MIN          = 1 * 10 ** 17; // 0.1 ether\n    uint256 public constant CONTRIBUTION_MAX          = 100 ether;\n\n    uint256 public constant TOKENS_SALE               = 500000 * DECIMALSFACTOR;  // 50%\n    uint256 public constant TOKENS_FOUNDERS           = 200000  * DECIMALSFACTOR; // 30%\n    uint256 public constant TOKENS_ADVISORS           =  50000  * DECIMALSFACTOR; // 5%\n    uint256 public constant TOKENS_EARLY_INVESTORS    = 200000  * DECIMALSFACTOR; // 15%\n    //uint256 public constant TOKENS_ACCELERATOR_MAX    = 257558034 * DECIMALSFACTOR;\n    //uint256 public constant TOKENS_FUTURE             = 120000000 * DECIMALSFACTOR;\n\n}\n",
  "sourcePath": "/Users/pabloruiz55/Documents/dapps/Crowdsale/contracts/config/TokenSaleConfig.sol",
  "compiler": {
    "name": "solc",
    "version": "0.4.18+commit.9cf6e910.Emscripten.clang"
  },
  "schemaVersion": "1.0.1",
  "updatedAt": "2017-11-15T00:39:22.165Z"
}